:020000040800F2
:10000000F0B30020950601088D0201088F02010857
:100010009102010893020108950201080000000006
:10002000000000000000000000000000C5B700084C
:1000300097020108000000006DB70008990201084E
:10004000E1060108E5060108E9060108ED060108D8
:10005000F1060108F5060108F9060108FD06010888
:100060000107010805070108090701080D07010834
:100070001107010815070108190701081D070108E4
:100080002107010825070108290701082D07010894
:100090003107010835070108390701083D07010844
:1000A00041070108450701089D02010849070108A9
:1000B0004D07010851070108AB0201085507010867
:1000C000590701085D070108610701086507010874
:1000D000690701086D070108710701087507010824
:1000E000790701087D07010881070108DD02010881
:1000F0008507010813030108890701088D07010816
:100100009107010895070108990701089D07010853
:10011000A1070108A5070108A9070108AD07010803
:10012000B1070108B5070108B9070108BD070108B3
:10013000C107010819030108C5070108C90701081B
:10014000CD070108D1070108D5070108D907010823
:10015000DD070108E1070108E5070108E9070108D3
:10016000ED070108F1070108F5070108F907010883
:10017000FD0701080108010805080108000000004A
:10018000090801080D0801082DE9F04F064683B063
:10019000DFF8F07A706838627089142846DBDFF87F
:1001A000E85A2968686901F0C3FA002840F0DD8147
:1001B000287D00F0F000E02800F0D781386A00F0D8
:1001C00079FD000B81001429A4BF308988422DDB02
:1001D0000022A1F114007A62B8827289DFF8AC9A29
:1001E000DFF8ACAA8A4206DBF882494209B23046FF
:1001F00001F000FD39E0306828B95346B2220FF211
:10020000D43101F02CF96FF01301304601F0F2FC0B
:100210007189BC8AF9823046641A09B2494209B22E
:1002200001F0E8FC30684189A4B2A142C0F29D818E
:100230004168796221B2494209B201F0DBFC3089A0
:10024000041B7089348128B15346CF220FF29431B8
:1002500001F005F9316830890A89904205D053468A
:10026000D0220FF28C3101F0FAF8386ADFF824BAA4
:10027000008802F057F8396A08804FF00008488873
:1002800002F050F8396A488001F0E0F8396A4860B5
:10029000B862396A886802F04BF8396A8860F86297
:1002A000386AC08902F03EF8396AC88100F0FDFC66
:1002B00000F03F00387010F00300318918BF0120B2
:1002C0004018B883DBF8004001E0A046E468002C49
:1002D00000F05281207D28B95346E2220FF23031DE
:1002E00001F0BDF8207D0A2805D15346E3220FF224
:1002F000483101F0B4F8207D012805D15346E422AD
:100300000FF2603101F0ABF8386A218B028891421C
:1003100002BFE18A40888142D7D16068296988425A
:1003200002BF206869698842CFD1E068A04205D148
:100330005346EC220FF2543101F091F8B8F1000F5E
:1003400007D0E068C8F80C00DBF80000E060CBF8EC
:100350000040E068A04205D15346F4220FF2583124
:1003600001F07DF8002078603089B881BE60386A7D
:10037000386100203863787078833878010703D5B6
:10038000707B40F0010070736FF00C05606F002807
:1003900069D0204602F0BCFCA84205D0616F00295C
:1003A0001CBFB88B00285ED0618D002902D1204689
:1003B00003F001FDCFE0E468002C00F0E380207D35
:1003C0000A2804D05346FE22414601F048F8386A14
:1003D000218B0388994202BFB0F802C0E08A6045D1
:1003E000E9D160682969884202BF2068696988424A
:1003F000E1D13A785107204624D4B98B940713D51C
:10040000BC6A426AB4EB020814D4028DA8EB020263
:10041000002A0FDC0193CDF800C005F11003F86A43
:1004200005F114026118C7E0D20703D5DFF8682888
:1004300013680362002905D0817E41F002018176B4
:1004400003F0EEFC91E0C18A5C88A14208D101680A
:100450006C69A14218BF002818BF002900F0AF80C6
:100460000246C06893E07C63204600F0F5F9A8429C
:1004700071D0787801070FD5D4F88C201AB1206993
:100480006FF00D0190472146584602F0DFFD2146EE
:10049000012004F0CCF95EE07A8B42B1E36F23B126
:1004A000206921469847A84255D0002078832046ED
:1004B00000F03EF900284ED1396B39B3606F30B18E
:1004C00053464FF4D2720FF21C2100F0C8FFA07EF9
:1004D0003A6BC10606D5104601F090FB204602F0AB
:1004E00001F938E0D4F880C0BCF1000F04D02069D5
:1004F00000232146E04704E000232146002002F0CB
:1005000065FCA84227D008B1386B6067787881060F
:1005100018D5606F20B1417B41F02001417311E09B
:10052000208DB0F5066F1CBF401C2085D4F880C01C
:10053000BCF1000F06D02069002300222146E047CD
:10054000A84208D000207863204600F0F1F810B9E6
:10055000204603F065FC002078633863B86848B132
:1005600001F04CFB0020B86004E03046BDE8FE4FCF
:1005700001F044BBBDE8F78FDFF820070FF28018C9
:10058000046819E7DFF818073B6A006800220028B2
:100590007FF459AF988901F0C5FE4007E5D4386A69
:1005A0000188019105F110034088B98B009005F195
:1005B0001402B86A4118F86A03F08CFDD5E732B12D
:1005C000C168D160DFF8D8160A68C260086000F020
:1005D000CDF8CAE7702D3E6E65787420213D204E1F
:1005E000554C4C00702D3E6C656E203D3D2030001A
:1005F000702D3E746F745F6C656E203D3D20702DD4
:100600003E6E6578742D3E746F745F6C656E00008D
:100610007463705F696E7075743A20616374697693
:1006200065207063622D3E737461746520213D20E6
:10063000434C4F53454400007463705F696E70759E
:10064000743A20616374697665207063622D3E732D
:100650007461746520213D2054494D452D57414911
:10066000540000007463705F696E7075743A2061A5
:100670006374697665207063622D3E73746174657E
:1006800020213D204C495354454E00007463705F57
:10069000696E7075743A207063622D3E6E65787471
:1006A00020213D2070636220286265666F7265209C
:1006B00063616368652900007463705F696E7075BB
:1006C000743A207063622D3E6E65787420213D205F
:1006D0007063622028616674657220636163686577
:1006E000290000007063622D3E7265667573656453
:1006F0005F64617461203D3D204E554C4C0000000C
:100700007463705F696E7075743A2054494D452D5D
:1007100057414954207063622D3E737461746520A3
:100720003D3D2054494D452D57414954000000009E
:1007300010B50446DFF84C054178C80614D5A07EF4
:10074000C10606D4D4F88C201AB120696FF00E01CE
:1007500090472146DFF83C0502F078FC2146012055
:1007600004F065F8012010BD002010BDF0B5DFF8E1
:10077000145506462878410783B06CD4C106DFF8CB
:1007800008750FD5286A0188019107F11003408888
:10079000A98B009007F11402A86A4118E86A03F0D7
:1007A00099FCF7BD810756D5707D02F055FB04001A
:1007B0000AD1B369002B4ED0306903B0BDE8F040D8
:1007C0004FF0FF3200211847786920603869606077
:1007D00004F15C07F08AE082286A01882183032102
:1007E0002175A86A401C6062E062204602F076FC37
:1007F0006065E0646064A065A86A401E2065306999
:100800002061FE61307A00F00C002072DFF8840471
:1008100000F0F4F9DFF8741C01200870204600F0A5
:1008200037FE286AC08938807880211D608E02F0EA
:100830005BFC60861221204603F02DFA30B1204681
:1008400003B0BDE8F040002101F0C9BE2046BDE87C
:10085000FE4003F0E5BAF7BD2DE9FE4FDFF8245462
:10086000DFF828A4DFF8288404462878410704F13B
:10087000440627D5207D022805D1E96AB268914255
:1008800040F0A98103E0616AAA6A8A4212D130B9B4
:10089000434640F2E7220FF2443100F0BBF968789A
:1008A00040F008006870A07E00F0FE00A0766FF0B7
:1008B0000D0091E1511A00F18E81208D091A002955
:1008C000DEDC89E0810704D5207D022818BF0328DB
:1008D000F7D1A07EC10603D4DFF8BC1308682062FC
:1008E000002084F89E0041F21C19204600F0D0FD43
:1008F000AA6AA88B2B6ADFF890E31018029094F88C
:1009000014B02F78E86AABF1020BBBF1070F07F0C8
:10091000100163D8DFE81BF008007A00D400DD0086
:100920000F01D40024014F0107F01207122F02BF5C
:1009300035686D1CA84252D1511C6162E162306081
:10094000521ED88930837083F26004202075211DE7
:10095000608E02F0C9FB42004A458CBF13464B46ED
:1009600060868100994238BF800003D34A458CBF1E
:1009700040004846B080F08B30B9434640F21A320E
:100980000FF6FC3100F046F9F08BB56A411EF18399
:100990005DB9756A35B9434640F222320FF6F83137
:1009A00000F038F92868706201E02868B0622846D3
:1009B00002F0ECF9B06A00280EBF4FF0FF300020C3
:1009C00084F842002086336C33B12069002221462E
:1009D000984710F10D0F40D000F015F9FBE0002909
:1009E000FCD0198801910EF11402598800910EF182
:1009F0001003029903F06EFB94F84200062804DA13
:100A000000212186204603F0F1FBE4E000294DD0CF
:100A10003168411A491E3DD4B168411A002939DCB8
:100A200004202075706BA8B1806940B9434640F23C
:100A300051320FF6783100F0EDF8706B50B1706BF9
:100A400083693BB1206900222146984740B110F1EB
:100A50000D0F02D0204601F045FE6FF00C00BBE008
:100A600000F0D6F8688B08B1401E6883608E4200A3
:100A70004A458CBF13464B468100994238BF8000DF
:100A800003D34A458CBF40004846B0806878810651
:100A90001BD4A0E0198801910EF11402598800912D
:100AA0000EF11003029903F015FB94E0B807FCD592
:100AB000606A401E824202D1204603F0AEFB8AE00B
:100AC00000F0A6F868788106F9D500F09CF80721B7
:100AD0002FE000F09DF86A782878E96A930600F024
:100AE00010001DD5C0B1B068814204BF706A0028F3
:100AF00012D1A17E41F00201A176204602F083FAD4
:100B000064480068A0423ED000E00846002846D075
:100B1000C168A142F9D140E000F075F8082108E071
:100B2000002858D0B068814204BF706A002852D1B2
:100B3000062121754FE000F06BF8687881064AD5F0
:100B400000F061F8204602F05EFA52480068A042C8
:100B500019D000E0084610B3C168A142FAD11CE0E8
:100B600000F056F82878C10635D5E86AB1688842A1
:100B700004BF706A00282ED1204602F044FA45498D
:100B80000868A04205D143480268D168016006E0C8
:100B9000084620B1C168A142FAD1E168C1600020D5
:100BA000E0600120DFF8E41808700A2121753B4855
:100BB00000F024F80FE000F02BF82878C1060AD5E1
:100BC000E86AB168884204BF706A002803D1697876
:100BD00041F0100169700020BDE8FE8F7463705F02
:100BE000696E7075743A207063622D3E737461741F
:100BF0006520213D20434C4F534544000168E1608E
:100C0000046003F0CFBEA07E40F00200A0767047E3
:100C1000204652E0504604F009B870B5054682B04F
:100C20000C46E96800F041F8C10713D5204602F0F0
:100C3000A4F8002423E000F03DF8C00706D5012009
:100C400001F070FBE9688A89104388812046246896
:100C500002F09CF89CB1E0680A492B89896A4268D5
:100C60002689CB189A1A921BE5D542689B1A002B4D
:100C700005DD511A298189B2686800F003FF2C60F4
:100C800073BD0000D0AE00202CAF00200C15000872
:100C9000341500088000002074000020840000202B
:100CA0007C000020D8F80000C168888901F03ABBB8
:100CB000B0813069808901F035BB2DE9F84F0746D6
:100CC0000FF64809387D0FF66C0A042806DA5346F9
:100CD0004FF481620FF6F40100F0C1FBDFF82468E5
:100CE0003078C10607F1440540F13581D5F80CC0D4
:100CF000B06AD5F810802C8B316AF36ABCEB000E19
:100D000008EB040209D402D1B8EB030C05D49845D2
:100D100017D1B1F80E80444513D2C98929836C8B51
:100D20008C4238BF0C466C83E86007F19C042B6151
:100D3000607819B928B92070012001E008B10020BD
:100D40006070D5F800800FF6A004A3EB080000281F
:100D500007F1420128DCB08B002801BFD5F810C094
:100D6000288B604490421CD1B7F93000002818D479
:100D7000984516D14878421CD3B2984238BF4A7081
:100D80004878042807DBA888798E09188AB290422F
:100D900000D2A9809EE00328FCD1384603F062FA15
:100DA00098E00020487095E0401E6ED4A868181A9C
:100DB00000286ADCB87E420704D500F0FB00B87654
:100DC000E888A88000200870B7F93E20B7F93C00F9
:100DD00002EBE002A7F84020002048702B60387D2D
:100DE000042831DBA888E9888842798E05D2091861
:100DF0008AB2904228D2A98026E0494391FBF0F1C3
:100E000009188AB2904238BF1046A8801CE0D8F872
:100E10000000A86200F0FBFAE98B814205D253463C
:100E200040F29E42214600F01AFB00F0F0FA00F07A
:100E3000F8FAE88B40B1A96A31B9686AE8B9534653
:100E400040F2A74200F009FBA86AB0B100F0FDFA39
:100E50008346A86AFFF728FFD5F82880B8F808105D
:100E600010F0030018BF012059444018F16A401ADD
:100E70000028CCDDB8F1000F02D14FF0FF3000E0C8
:100E8000002038860020F87624E0384602F093FFF0
:100E900020E0D8F80000686200B9288400F0B7FAB2
:100EA000E98B814205D2534640F2D542214600F0FB
:100EB000D6FA00F0ACFA00F0B4FAE88B50B1A96AA7
:100EC000002904BF686A002804D1534640F2DD427D
:100ED00000F0C3FA686AB8B100F0B7FA8346686AEE
:100EE000FFF7E2FED5F82480F16AB8F8082010F088
:100EF000030018BF0120A1EB0B039A1A101A03D4A8
:100F0000A868091A0029C4DDA98B708B4118A98330
:100F1000786B00B3BA6BF16A521A1CD5DFF8E8257A
:100F20001368B7F93C10181A00B2A0EBE1004118A1
:100F3000B98702B2002AB7F93E2048BF4042801864
:100F4000A0EBA200F8870904C91401FA80F0A7F801
:100F5000400000207863B08BB16A002800F0308236
:100F60003A7D072A80F22C827A6A541A631E58D47A
:100F7000201A401C55DCD6F80880B8F1000F06D1C5
:100F8000534640F23C520FF2A86100F068FA47F66F
:100F9000FF70844206DB534640F23D520FF2A061DF
:100FA00000F05DFAB0680FF2B86B4189A14223DA14
:100FB0000089A04206DA534640F23F520FF2906198
:100FC00000F04DFAB0680089001B07E0641A0021A8
:100FD000A8F80800A8F80A10D8F80080B8F80A1095
:100FE000A142F3DB644221B2404600F003FE70B13F
:100FF000534640F24C5207E0644221B200F0FAFD41
:1010000028B1534640F25152594600F028FA796A05
:10101000B289B06A521A8218B281B16230694160F5
:1010200005E0891A03D5B87E40F00200B876796AE7
:10103000B26A531A00F1BF81388D1B1A5B1C00F392
:10104000BA8191420FF22C6B40F00581FFF731FE1F
:1010500000F0FFF918BF01204018B08380B2398D2D
:10106000814221D2FFF725FEC00708D5FFF721FEF8
:1010700000F03E0001F056F9326900F0B5F9388D04
:10108000FFF716FE00F0D8F9FFF713FE00F0E1F9C4
:1010900018BF0120401800F0B1F905D0534640F2C6
:1010A0007F52594600F0DBF9E86A002855D03169D3
:1010B000FFF7FBFDC00707D5E86A00284DD001689F
:1010C000E96201F063FEF7E7EC6A1AE0FFF7EDFD75
:1010D000C00712D5FFF7EDFD80070ED4012001F007
:1010E00021F931698A891043888101F01BF900F0E8
:1010F000B0F918BF01204018B0832046246801F0E1
:1011000045FE4CB3E168B06AB38B4A68B4F8088016
:10111000C3189A1AB2EB0802D8D54A689B1A002B5A
:101120001ADD101AFFF7C4FD00F086F9FFF7C1FDC4
:1011300000F08FF918BF01204018B083E268B36A4D
:10114000516813FA80F0884206D0534640F2AF52FD
:101150000FF2585100F083F9EC62B08BB16A0918B4
:101160007962398D814206D2534640F2B9520FF26C
:10117000785100F074F9398DB08B091A39853846E9
:1011800001F05DFBB168088910B131630021B160E5
:10119000FFF78FFDC00703D5707840F02000707016
:1011A000EC6A002C00F01981E1687A6A4868904284
:1011B00040F01381B062E068FFF77CFD10F003009F
:1011C0002289796A18BF0120801841187962E06885
:1011D000FFF770FD10F003002289398D18BF012040
:1011E0008018814206D2534640F2DE520FF2185167
:1011F00000F035F9E068FFF75DFD10F00300398D70
:10120000228918BF0120891A081A3885384601F04A
:1012100016FB6168088938B1306B00280CBF316358
:1012200000F073FD00206060E068FFF743FDC00739
:1012300008D5707840F020007070387D042804BF15
:10124000072139752068E862204601F09FFDA7E775
:1012500040F00100BEE0384602F0ADFDD5F82C802C
:10126000B8F1000F03D100F0C6F8E862B3E0B26A4B
:101270000024D8F80C104868824208D0B4B9101A7B
:101280001DD500F0B8F80028F0D0E8620CE0B8F8FE
:101290000800B1898842E9D200F0ADF80028E5D015
:1012A000002C14BF2060E862414629E0E3685868DA
:1012B000101A401E03D44868101A401C0BDDD8F8E1
:1012C000000018B94B68D31A002B1CDC44465FEAB7
:1012D0000008CED17FE000F08EF8002800907AD090
:1012E000E068238900F097F806DD42686068891A93
:1012F000218189B200F0C6FB009820604146009829
:10130000BDE8F44F89E4FFF7D0FCC00763D400F0D8
:1013100072F80028C8F800005DD0D8F80C00B8F8C2
:10132000083000F078F808DD4268D8F80400891A1F
:10133000A8F8081089B200F0A5FBB08BB16A0918B3
:10134000786A091A388D091A002944DDD8F8001086
:10135000C868FFF7AFFCC0070AD5FFF7A3FC00F091
:101360003E0000F0DFFFD8F80010CA6800F03CF83B
:101370007A6A388DB16A8218D8F80000511A018152
:1013800089B2406800F07EFBFFF78CFCD8F80010B3
:101390000A8910F0030018BF0120801800F02EF811
:1013A00019D053465946484601B0BDE8F04F40F2C7
:1013B0007B6203F03BBC3846BDE8F24F02F0FBBC59
:1013C000786A091A03D4388D091A491C03DDB87EDE
:1013D00040F00200B876BDE8F18FB87EC1077FF516
:1013E00037AF00F0FE00F3E793894CF2FF010B40AA
:1013F000184390817047301D01F0D6BCB083B16AAC
:101400003A8D11FA80F0796A891888427047D8F8C5
:10141000040000F058BC4268B16AD218521A002A7F
:101420007047E98B081AE883B8F80810708B081821
:101430007083404601F0AABC800702D5B089411EE6
:10144000B181B189B06800F01DBBC168486800F087
:101450006FBF10F00300B18970470FF2B411484616
:1014600003F0E4BB10B527490A8B486A531C10B13E
:10147000CC8AA24204D2086A0B831044007D10BDBE
:10148000121BD2B20B83805C10BD000070000020E4
:10149000F8B51C4DAC8A064664B30020288317E0DB
:1014A000FFF7E0FF042825D1288B801C844221DB34
:1014B000FFF7D8FF0746FFF7D5FF40EA072040F2C5
:1014C0001921884201DA010001D14FF406707086BB
:1014D000288BA0420ED2FFF7C5FF58B10228DFD0FB
:1014E000F6D3FFF7BFFF0228A1BF298B801E41184A
:1014F0002983EDDAF1BD0348417841F010014170D4
:1015000070470000D0AE0020740000204173736566
:101510007274696F6E2022257322206661696C6582
:1015200064206174206C696E6520256420696E20DA
:1015300025730A00443A5C50726F6A6563745C54A8
:101540004553545C4170706C69636174696F6E5C83
:101550004D6964646C6577617265735C5468697227
:10156000645F50617274795C4C7749505C7372634C
:101570005C636F72655C7463705F696E2E630000FC
:101580007063622D3E736E645F71756575656C6521
:101590006E203E20300000006E6F207365676D6521
:1015A0006E7420746F206672656500007063622D32
:1015B0003E6C697374656E65722D3E616363657020
:1015C0007420213D204E554C4C0000007463705F28
:1015D000726563656976653A2077726F6E6720730E
:1015E00074617465000000007063622D3E736E6468
:1015F0005F71756575656C656E203E3D2070627526
:10160000665F636C656E286E6578742D3E70290088
:101610007463705F726563656976653A2076616CA4
:101620006964207175657565206C656E6774680006
:10163000696E7365672E7020213D204E554C4C001D
:10164000696E73616E65206F666673657421000054
:101650007062756620746F6F2073686F72742100FA
:10166000706275665F686561646572206661696C49
:10167000656400007463705F726563656976653ADE
:10168000207365676D656E74206E6F742074726967
:101690006D6D656420636F72726563746C7920741C
:1016A0006F207263765F776E640A00007463705F08
:1016B000726563656976653A207365676D656E74FA
:1016C000206E6F74207472696D6D656420636F7233
:1016D000726563746C7920746F206F6F736571200D
:1016E00071756575650A00007463705F7265636586
:1016F0006976653A207463706C656E203E20726373
:10170000765F776E640A00007463705F726563656C
:101710006976653A206F6F736571207463706C65CC
:101720006E203E207263765F776E640A00000000D0
:10173000C24318BF002810D091F8332093070ED56C
:101740004A6890420BD0896801EA00030A4093423C
:1017500002BFC9430840884201D1012070470020E0
:101760007047F0B40246106895681318506803EB90
:101770005004C00721D54D441FE0F0BC02F10C001D
:10178000704713F8017B05F8017B491EF9D1A0B120
:10179000B60813F8011B06F00306032E08BF13F862
:1017A000016B01EB06214942801C294405D011F848
:1017B000016B05F8016B401EF9D1A342DDD013F88F
:1017C000016B16F0030104BF13F8011BC91C30099B
:1017D0000F28DAD113F8010B0F30D6E710B503F05C
:1017E00014FB154A0021117003F018FB134804681C
:1017F00000E0E46834B1206F0028FAD001F0BDFAAF
:101800000020206710BD38B503F0FFFA0A4C257898
:101810000121217003F002FB6DB90022002108486C
:1018200003F080FB38B103F0F0FA00212170BDE82D
:10183000324003F0F3BA31BDEDAF0020800000204C
:10184000DD1700082DE9F84F042815460FF2B0699E
:101850000FF2F0681BD8DFE800F003141618180028
:101860003627032D0E4600F2CB80DFE805F08CBB57
:10187000BB020D2002F0A9FF05000ED1FFF7C3FF48
:10188000B5E02227EDE70E27EBE70027E9E743461F
:101890004FF48B720FF29061B7E003202873FC1CA9
:1018A00000202860A408E8191030C01CA40080089B
:1018B000C4F514748000A64268602E8138BF374694
:1018C00005D3FF1C4FF6FC700740C7F514776F81F6
:1018D00000F0A0F80FF2B86704D243464FF49872B4
:1018E00000F0EDF934B943464FF499720FF2D46128
:1018F00000F0E6F90120E881AB4668890FF2F86A4A
:1019000033E003202073002060732060CBF8004098
:101910004FF6FF70864205DB43464FF4A6725146F0
:1019200000F0CEF9B0B2B0F5147F2CBF4FF41470B4
:1019300030466081268104F110006060207910F04B
:10194000030F06D043464FF4A9720FF2C06100F0B6
:10195000B7F900F05FF804D2434640F2551200F0A8
:10196000AEF90120E081A3466089361A012E4FDBD3
:101970000D2002F02AFF0400C3D1FFF744FF2846E0
:1019800000F03CF933E007F113004FF6FC71F21C54
:1019900008400A401018F11C80B28908B0EB810F92
:1019A00025D303F00AFD040021D0E0191030C01C3B
:1019B000800880006060268166810020206020739E
:1019C000207910F0030F06D0434640F277120FF251
:1019D0006C6100F075F90120E08100206073204601
:1019E000BDE8F28F0C2002F0F0FE040001D10020CF
:1019F000F6E7002060602681668120602573EAE7B3
:101A000043464FF4C6720FF2606100F059F9EEE7F9
:101A10002C46E0E769686A8905F518701144884228
:101A20007047000038B50446042C184610D8DFE88B
:101A300004F003090B0D0D003824059B6518AB421B
:101A400012D20FE02424F8E71024F6E70024F4E78C
:101A50000FF2F0430FF22C610FF2A44040F2C512D6
:101A600003F0E4F8002032BD049B0025056003B1BB
:101A7000234401814181436001210223C1814373D9
:101A8000027332BD2DE9F04704000F460FF2704596
:101A90000FF2B04806D1434640F2F3120FF208614C
:101AA00000F056F8207B032818BF01280AD0002830
:101AB00018BF022806D0434640F2F7120FF2006129
:101AC00000F046F82689B74240D2BE1B0FF22069CB
:101AD0000FF2086A16E03F1A4FF6FF708642BFB257
:101AE00005DB434640F20B22514600F031F82089D5
:101AF0003018208124682CB9434640F20F22494611
:101B000000F026F86089B842E5DB207BA8B961893E
:101B10008F4212D0607B81070FD46168091B79184E
:101B200089B2204603F0CDFB040006D1434640F2C3
:101B30001D220FF2D45100F00BF8678160892081DB
:101B4000206808B100F05AF800202060BDE8F08756
:101B5000284603F06BB8F8B50FF2A4340FF2E43363
:101B600038B940F23F220FF2BC51204603F05EF834
:101B700035E00D0033D04F4200290AD5BC464589D7
:101B80001FFA8CF6B54206D240F247220FF2A0515E
:101B90002BE01FFA81FC057B4668002D18BF032D42
:101BA00007D100F11003F2199A42426011D2466047
:101BB0001EE0022D18BF012D13D1002905D5428941
:101BC0001FFA8CF39A4202D212E011DD82B1F219AF
:101BD000426042898A184281028989180181002065
:101BE000F2BD40F277220FF26851204603F01EF852
:101BF0000120F2BD0022AEE70122ACE72DE9F84F4B
:101C000004000FF2FC290FF23C3A08D1534640F28F
:101C1000D2220FF2105100F053F800204DE0207B4B
:101C2000002818BF01280AD0022818BF032806D0B0
:101C3000534640F2DE220FF2285100F041F8002511
:101C40000FF24C5B0FF2305803F0DFF80646E089E4
:101C500028B9534640F2EB22414600F031F8E089C2
:101C6000471EE781304603F0D9F8BFB227BB617B3E
:101C70002668207B8A070BD5206928B9534640F295
:101C8000F922594600F01CF821692046884710E0E7
:101C9000032802D121460D2005E0012818BF0228A3
:101CA00004D121460C2002F0C2FD02E0204603F0E0
:101CB000BAFA6D1C3400C7D1E8B2BDE8F28F3946DC
:101CC000484602F0B3BF0146002001E00968401C0D
:101CD0000029FBD180B2704710B5040014D003F086
:101CE00094F8E189491CE18103F098F8E08958B93A
:101CF000BDE810400FF24C230FF2B8410FF2002064
:101D000040F2393202F092BF10BDF8B504000D4622
:101D100018BF002D0FF2E8160FF228270FD13B460F
:101D2000304601B0BDE8F04040F24D320FF298412C
:101D300002F07CBF21892A8951182181044620683C
:101D40000028F7D120896189884207D03B4640F2BC
:101D500055320FF2AC41304602F068FF206838B1CE
:101D60003B4640F256320FF2C841304602F05EFF69
:101D700021892889411821812560F1BD2DE9F84F7D
:101D80000446002600270D46002C18BF002D6FF0DA
:101D90000F090FF26C1A0FF2AC1803D020892989B1
:101DA00088425DD2434640F2BD320FF2944145E095
:101DB0001FFA80FB6868C11960685A46801903F0F1
:101DC000A7FC5E446089B6B25F44B042BFB206DA97
:101DD000434640F2CD320FF2984100F04AF868894C
:101DE000B84206DA434640F2CE320FF29C4100F090
:101DF00040F8688987426089A4BF00272D68864221
:101E000002BF00262468002C11D02DB168892989D1
:101E1000884201D12868A8B92CB1608921898842FB
:101E200001D12068C0B9DDB90020BDE8F28F002DD6
:101E3000FAD043464FF476720FF2684100F019F879
:101E40004846F2E7434640F2DE320FF2684100F0C6
:101E500010F86FF00500E8E7434640F2E332F4E79C
:101E60006B896089811BDA1B9142ACBFD81B801B38
:101E70009EE7504602F0DABE2DE9F8430446894653
:101E8000174600260FF278000FF2B8012CB90B4666
:101E900040F2FE320FF2484107E0B9F1000F07D1DE
:101EA0000B4640F2FF320FF2584102F0BFFE0AE04B
:101EB000B04621E0658998B240B1A84206D32468B3
:101EC0005B1B002CF6D13046BDE8F283ED1AADB2B3
:101ED000BFB26068AF429BB2B8BF3D46C1182A4648
:101EE00009EB080003F014FCAE19A8442468B6B24C
:101EF0001FFA88F87F1B0023B8B20028E3D0E0E780
:101F0000417373657274696F6E2022257322206697
:101F100061696C6564206174206C696E652025645C
:101F200020696E2025730A00706275665F616C6CB3
:101F30006F633A206261642070627566206C61791B
:101F400065720000443A5C50726F6A6563745C5459
:101F50004553545C4170706C69636174696F6E5C69
:101F60004D6964646C6577617265735C546869720D
:101F7000645F50617274795C4C7749505C73726332
:101F80005C636F72655C706275662E6300000000B2
:101F9000636865636B20702D3E7061796C6F61645E
:101FA000202B20702D3E6C656E20646F6573206E53
:101FB0006F74206F766572666C6F772070627566DD
:101FC00000000000504255465F504F4F4C5F425555
:101FD0004653495A45206D757374206265206269C5
:101FE00067676572207468616E204D454D5F414C96
:101FF00049474E4D454E540072656D5F6C656E20CD
:102000003C206D61785F7531365F74007062756673
:102010005F616C6C6F633A207062756620712D3E53
:102020007061796C6F61642070726F7065726C7929
:1020300020616C69676E65640000000070627566FF
:102040005F616C6C6F633A20706275662D3E7061E3
:10205000796C6F61642070726F7065726C79206149
:102060006C69676E65640000706275665F616C6CB8
:102070006F633A206572726F6E656F757320747945
:1020800070650000706275665F616C6C6F6365649B
:102090005F637573746F6D3A20626164207062755E
:1020A00066206C6179657200706275665F72656149
:1020B0006C6C6F633A207020213D204E554C4C00D3
:1020C000706275665F7265616C6C6F633A207361F4
:1020D0006E6520702D3E74797065000067726F77B1
:1020E000203C206D61785F7531365F740000000020
:1020F000706275665F7265616C6C6F633A20712007
:10210000213D204E554C4C006D656D5F7472696DBC
:102110002072657475726E65642071203D3D204E9D
:10212000554C4C007020213D204E554C4C00000079
:10213000696E6372656D656E745F6D61676E6974FB
:10214000756465203C3D20702D3E6C656E0000007E
:1021500062616420706275662074797065000000A9
:10216000706275665F667265653A2073616E6520A0
:102170007479706500000000706275665F66726554
:10218000653A20702D3E726566203E2030000000CA
:1021900070632D3E637573746F6D5F667265655F06
:1021A00066756E6374696F6E20213D204E554C4CF0
:1021B000000000007062756620726566206F7665AB
:1021C00072666C6F77000000286820213D204E5514
:1021D0004C4C2920262620287420213D204E554C89
:1021E0004C29202870726F6772616D6D6572207660
:1021F000696F6C61746573204150492900000000CB
:10220000702D3E746F745F6C656E203D3D20702DA7
:102210003E6C656E20286F66206C6173742070625E
:10222000756620696E20636861696E290000000090
:10223000702D3E6E657874203D3D204E554C4C000F
:10224000706275665F636F70793A2074617267655A
:1022500074206E6F742062696720656E6F756768A1
:1022600020746F20686F6C6420736F7572636500F3
:102270006F66667365745F746F203C3D20705F7499
:102280006F2D3E6C656E00006F66667365745F66E9
:10229000726F6D203C3D20705F66726F6D2D3E6CDD
:1022A000656E0000705F746F20213D204E554C4CD0
:1022B00000000000706275665F636F7079282920E6
:1022C000646F6573206E6F7420616C6C6F77207023
:1022D00061636B657420717565756573210000001D
:1022E000706275665F636F70795F70617274696147
:1022F0006C3A20696E76616C6964206275660000D4
:10230000706275665F636F70795F70617274696126
:102310006C3A20696E76616C6964206461746170E6
:10232000747200000146000A40EA012080B2704742
:102330000146080200F47F000A0A40EA016002F444
:102340007F42104340EA11607047B1F5807F02D3AD
:102350004FF0FF3070470170012070470078401E39
:102360008041C043C00F7047704780B500F09BFCB0
:10237000DFF8D40A0178491C0170C80702D5BDE80E
:10238000014001E301BDF0B5044683B0227DDFF8D2
:10239000BC5ADFF8BC6ADFF8BC7A00294BD0042AAB
:1023A00018BF072A47D1606F002804BF218DB1F5FF
:1023B000066F40D0A07EC10606D43B4640F20F1205
:1023C0000FF2841100F09DFA208B0190231DE08A0A
:1023D00000902246616AE06C01F07CFE204600F02D
:1023E00012FE2869A04203D1C068286106E00846B1
:1023F00020B1C168A142FAD1E168C1600020E0606B
:1024000001202870207D042808D10A2121756869DF
:10241000E0606C6102F0C6FA0020FEBDDFF8240B1C
:102420000168A14202D1FFF766F8F5E721460120D5
:1024300002F0FDF9F0E71AB1022A3FD013D346E0CB
:10244000E08A0028F2D0A868A04203D1C068A86042
:1024500006E0084620B1C168A142FAD1E168C16036
:102460000020E060E2E77CB93B46C0220FF20C118D
:1024700000F047FA0020017D012905D03B46C1222A
:102480000FF2E00100F03DFA01210FF2CC4252F8C8
:102490002100006805E0836FA34204BF0023836727
:1024A000C0680028F7D1491C0429F0D3214605F162
:1024B0000C0000F0CBFD21460220B9E7214605F1D2
:1024C000100000F0C3FD012028702146B0E720462F
:1024D000BDE8FE4038B5050009D1DFF878390FF2C4
:1024E0009C01DFF86C0940F24D1202F09FFB297D40
:1024F000032904D004290AD0072913D019E028465B
:1025000001F034F8040007D10520287505E02846BD
:1025100001F02CF80400F7D06CB9284601F080FCDB
:10252000204632BD284601F021F80400F4D10920EC
:10253000EBE7002032BD14F1010FF1D1A87E40F08D
:102540000800A876F5E700007063622D3E666C61B6
:10255000677320262054465F5258434C4F534544DE
:10256000000000007063622D3E7374617465203D4D
:102570003D204C495354454E0000000070636220DA
:10258000213D204E554C4C00017D012903D0827E17
:1025900042F0100282760121F5E610B50446207D56
:1025A000012819D089B1A07E40F01000A07622B198
:1025B00001212046BDE81040E5E6606F18B1FFF745
:1025C0001DFB00206067002010BD002AFBD0C01E4C
:1025D0000128EED9001FECD06FF00A0010BD2DE9E4
:1025E000FE4F04468B46207D012809D1DFF8643870
:1025F0000FF2BC01DFF858084FF4F07202F016FB3E
:10260000217DDFF86C7B0A290BD1214607F11400EC
:1026100000F01CFD214603B0BDE8F04F012002F0A0
:1026200006B9E06C02900025666AD4F88CA0D4F854
:102630001080E08AA94679B9B8B1B868A04203D140
:10264000C068B86006E0084620B1C168A142FAD16E
:10265000E168C160E56008E08146214607F11000AD
:1026600000F0F4FC01205D463870E06E08B100F027
:1026700084FBA06E08B100F080FB206F08B100F071
:102680007CFB4DB1208B0190CDF80090231D02986A
:102690002246314601F01EFD214600F0CDF85FEAEA
:1026A0000A0003D06FF00C014046D047BDE8F78F19
:1026B000646F6E27742063616C6C207463705F615B
:1026C000626F72742F7463705F6162616E646F6EAB
:1026D00020666F72206C697374656E2D706362730F
:1026E0000000000001217AE7F8B50C00054608BF9C
:1026F000DFF8804A002D18BF002C13466FF0050646
:102700000BD0287D58B1DFF84C370FF270010FF66F
:1027100074204FF4117202F089FA3046F2BD1800AD
:1027200006D100F0F1F8030018D16FF00100F2BDFE
:1027300000260FF2242757F82600006858B1C18AF6
:10274000994206D1B8B10268AAB1216899B18A420A
:1027500011D0C068F2E7761C042EECDB206800B1D3
:102760002860DFF80C0AEB828168E960856002F07E
:1027700019F90020F2BD6FF00700F2BD7463705FBD
:1027800062696E643A2063616E206F6E6C792062BC
:10279000696E6420696E20737461746520434C4FC8
:1027A0005345440080B50846FFF79CFF6FF00C00CE
:1027B00002BDF8B504461546207D002660B10FF62F
:1027C000EC130FF630210FF6BC104FF42D7202F00F
:1027D0002DFA6FF00E0029E0022001F0F6FF06004E
:1027E00008BF4FF0FF3021D02069DFF860763061FC
:1027F000E08AF08201203075607D7075207A307239
:10280000A07AB072607A707220683060E08A08B195
:1028100000F0AAF8214600F00FF8DFF85C09B0617B
:10282000F868F060FE6002F0BDF8002005B1287085
:102830003046F2BD2946ED68012001F0F8BF38B5F9
:102840000446218D656A628E681840F231439A42CF
:10285000E36AA8BF4FF48662C01A821A01D4618568
:1028600032BDE81A0028C8BF00250DDC5D1BB5F598
:10287000803F09D30FF634130FF69C110FF60410A6
:102880004FF4427202F0D2F96585002032BDF8B5EE
:1028900004460D46207D0FF6EC060FF610170128B2
:1028A00006D13B464FF448720FF6881100F029F824
:1028B000208D2D18258540F66100ADB2854205DAE0
:1028C0007DB9207D072818BF092803D14FF4066081
:1028D000208506E03B4640F22D320FF6801100F0D5
:1028E00010F82046FFF7ABFFB0F5067F08DBA07EAF
:1028F00040F00200A0762046BDE8F24001F090BA18
:10290000F1BD304602F092B970B500220FF24803D3
:10291000DFF868482088411C4FF6FF75A84208BFC1
:102920004FF4404121800025208853F82510096884
:1029300000E0C96849B1CE8A8642FAD1521C92B2EF
:10294000B2F5804FE6DB002070BD6D1CEDB2042DAA
:10295000EBDB70BD000000007C0000207800002050
:102960008000002084000020B868A04203D1C06825
:10297000B86006E0084620B1C168A142FAD1E1681A
:10298000C1600020E06070472DE9F04FDFF8E0679C
:102990000FF6180A7068401C706083B07078401C95
:1029A00070701BE1ED68002D00F06D81287D30B95D
:1029B00053464FF47C720FF6C80100F070F9297D80
:1029C000012906D1534640F2F1320FF6E00100F042
:1029D00066F9287D0A2806D1534640F2F2320FF6F6
:1029E000F80100F05CF97078697F8142DAD0297DC6
:1029F0004FF0000B02296877D84605F1400405F135
:102A00009C0702D1A078062802DAA2780C2A02DB01
:102A10004FF0010B4BE07878B8B10FF6C8210844AD
:102A2000397810F8010C8142BCBF491C39703978E3
:102A300081423CDB284601F062FCC0BB38707878EC
:102A4000062834D8401C787031E0B5F930000028F1
:102A50005CBF401C2886E06A48B3B5F93030B4F951
:102A60000000834223DB02290DD0B5F93C00B5F903
:102A70003E100C2A01EBE00128BF0C220FF6542077
:102A8000805681402180A5F830802089A18B884222
:102A900088BF0846698E490040088BB2984238BF0B
:102AA00008466081688E2081284601F09FFB287DC2
:102AB000062809D1A97ECA0606D571682A6A891A2C
:102AC000292928BF0BF1010B297A0A0724D50428EC
:102AD00018BF072820D173682A6A606D216D9A1A81
:102AE000A36D00FB03134FF4FA7CB3FBFCF393429A
:102AF00004D20BF1010B4FF001080DE0BB7800FB95
:102B00000310B0FBFCF0904206D2284601F0D1FB46
:102B100010B9B878401CB870206B68B171682A6A27
:102B2000891AB4F90020062312FB03F3994203D358
:102B300000F023F900202063287D032806D1716866
:102B40002A6A891A292928BF0BF1010B092806D105
:102B50007068296A401AF12828BF0BF1010B5FFA4F
:102B60008BF000283ED0E76C284600F04CFAB9F113
:102B7000000F30690CD0854206D1534640F289429D
:102B80000FF2847100F08BF8E868C9F80C000AE0D5
:102B9000A84206D0534640F28D420FF2987100F0E1
:102BA0007EF8E8683061B8F1000F09D0288B0190F9
:102BB0002B1DE88A00902A46696AE06801F08AFACB
:102BC0002C69FFF737FE0020002F307009D06FF01E
:102BD0000C012046B8473078002802D035694FF004
:102BE0000009E0E6A94699F81B0099F81C10ED6869
:102BF000401C89F81B00C0B28842F2D3002089F83B
:102C00001B003070D9F8882042B1D9F8100049462D
:102C1000904731780029E1D1002802D1484601F0DF
:102C2000FFF8C0E6A84205D0534640F2CF424146E5
:102C300000F035F8E8687061FFF7FCFD6DB3287DA2
:102C40000A2805D0534640F2BD42394600F027F825
:102C50007068296A401AF12812D3284600F0D3F987
:102C60007069B9F1000FDDD0854205D1534640F2BD
:102C7000CB42214600F013F8E868C9F80C00DBE706
:102C8000A946ED68DAE775690FF22C780FF2007447
:102C90000FF2CC674FF00009D0E7BDE8F78F0FF2D5
:102CA000E44001F0C3BF70B5DFF8C4546878401C3D
:102CB00068702C691EE06077A07EC10705D500F022
:102CC00021F8A07E00F0FC00A076A07E010705D5CB
:102CD00000F0F700A0762046FFF7FCFBE668606F87
:102CE00038B100212970204600F012F82878002819
:102CF000DFD134462CB16878617F8142DBD1E46852
:102D0000F8E770BD40F00200A076204601F088B8D8
:102D10002DE9F042054600206F6FD5F880407E7B9C
:102D20006867002C03463A46294602D02869A04726
:102D300001E000F04BF801006FF00C0912D1B00671
:102D400018D5288DB0F5066F1CBF401C2885D5F816
:102D500080407CB12869002300222946A0474845CD
:102D600008D101E0484501D1484604E06F676FF0A3
:102D7000040000E00020BDE8F08210B5002803E068
:102D8000046800F003F82000FAD110BD10B504006B
:102D900009D0606808B1FEF731FF2146BDE8104058
:102DA000032001F044BD10BD38B50546032001F0F5
:102DB0000CFD040001D1002032BD1022294602F092
:102DC000A7FC6068FEF788FF204632BD10B51400EE
:102DD000084607D02189FFF75AFD2046FEF70EFF6F
:102DE000002010BD002BFBD1BDE81040FFF7CCBB8D
:102DF00070B5082818BF0928044609D00FF2AC3373
:102E00000FF2DC510FF27C3040F2DC5201F00EFF89
:102E1000DFF85C331869002100220AE0057DA54235
:102E200006D15E68056A751B8D4224BF294602469D
:102E3000C0680028F2D12AB1BDE8704000211046D8
:102E4000FFF7CDBB70BD0000EEAF0020700000208A
:102E500084310008AC310008F8B5064600F074F87B
:102E60000400C34D42D168696C680022002106E06D
:102E7000036AE31A934224BF1A460146C068002839
:102E8000F6D111B10846FFF72DFC00F05DF8040003
:102E90002CD10920FFF7ACFF00F056F8040025D133
:102EA0000820FFF7A5FF00F04FF804001ED1802E88
:102EB000ACBF7F2232462869002300210DE0447D0B
:102EC000A24221BFD5F804C0076AACEB07079F42B6
:102ED00002D33B4601462246C0680028EFD111B11B
:102EE0000846FFF7FFFB00F02FF8044644B3A0218B
:102EF000204602F061FC04F1480066754FF48661DB
:102F000001834FF4066262852285FF22A2724FF48C
:102F1000067262860622A4F84020E2874FF0FF3254
:102F20002286012202806A6822626A786277418082
:102F30009349816341F288318164C1640221016552
:102F40002046F2BD04AF0020012001F03EBC00BFCE
:102F5000402081E700B10161704738B504000D469B
:102F60000ED0207D012809D10FF240230FF28041BD
:102F70000FF2102040F2BB6201F058FEC4F88050FE
:102F800031BD38B504000D460DD0207D012809D192
:102F90000FF218230FF280410FF2E81040F2CC62DA
:102FA00001F044FEE56731BD38B50C4678B100F15B
:102FB00014052878012809D10FF2F0130FF280418F
:102FC0000FF2C0104FF4DC6201F030FEAC6731BD8F
:102FD00018B1027D012A08BF8161704770B50446AF
:102FE0000D46207D0128164609D10FF2C0130FF2BD
:102FF00078410FF2901040F2037201F017FEC4F80E
:103000008850267770BD38B50546287D00281CBF3E
:103010000A28012819D005F16404206918B1FEF7C7
:10302000EDFD00202061E068FFF7A7FE0020E060D2
:103030004FF0FF3028866068FFF79FFEA068FFF71B
:103040009CFE00206060A060208031BD70B502460B
:103050000C461068A04203D1C068106006E0084624
:1030600020B1C168A142FAD1E168C1600020E060EE
:103070002046FFF7C8FF207D0A2809D0012829D063
:10308000A07EC10701D5FFF73DFE207D012821D09C
:10309000A06E0FF2F0050FF2141638B1334640F26D
:1030A00053720FF2E431284601F0C0FDE06E38B1F2
:1030B000334640F254720FF2E831284601F0B6FD73
:1030C000206F38B1334640F256720FF2F031284685
:1030D00001F0ACFD00202075E08270BD244A9069AB
:1030E000516808189061704710B50446084602F010
:1030F00067FB40B1B0F92A00010004D0283882B241
:10310000944288BF1446204610BD38B50446084690
:1031100000E0284638B101682268C568914208BFBE
:10312000FFF7E0FAF5E731BD70B504001CBF206879
:1031300000280D4619D00E4E31692046FFF7E5FFF5
:10314000B1682046FFF7E1FF002D1CBF286800286A
:103150000BD0F068002807E002682368C1689A4233
:1031600004BF2A6802600800F6D170BD00000000AC
:1031700070000020DC060108A52700081C020020C2
:10318000CD2D0008417373657274696F6E2022251E
:103190007322206661696C6564206174206C696EBD
:1031A0006520256420696E2025730A00443A5C502E
:1031B000726F6A6563745C544553545C4170706C03
:1031C00069636174696F6E5C4D6964646C65776195
:1031D0007265735C54686972645F50617274795C83
:1031E0004C7749505C7372635C636F72655C7463A7
:1031F000702E63007463705F6C697374656E3A203F
:1032000070636220616C726561647920636F6E6EB9
:1032100065637465640000006E65775F7263765F56
:10322000616E6E5F776E64203C3D20307866666626
:1032300066000000646F6E27742063616C6C2074FC
:1032400063705F72656376656420666F72206C6977
:103250007374656E2D706362730000007463705F39
:103260007265637665643A206C656E207772617072
:10327000706564207263765F776E640A00000000F8
:103280007463705F736C6F77746D723A20616374EE
:10329000697665207063622D3E73746174652021C8
:1032A0003D20434C4F5345440A0000007463705F57
:1032B000736C6F77746D723A206163746976652000
:1032C0007063622D3E737461746520213D204C490A
:1032D0005354454E0A0000007463705F736C6F773F
:1032E000746D723A20616374697665207063622D33
:1032F0003E737461746520213D2054494D452D571E
:103300004149540A000000007463705F736C6F776A
:10331000746D723A206D6964646C6520746370200A
:10332000213D207463705F6163746976655F7063CB
:10333000627300007463705F736C6F77746D723AC0
:1033400020666972737420706362203D3D2074634F
:10335000705F6163746976655F706362730000001B
:103360007463705F736C6F77746D723A2054494D5B
:10337000452D57414954207063622D3E737461742A
:1033800065203D3D2054494D452D5741495400008D
:103390007463705F736C6F77746D723A206D6964DB
:1033A000646C652074637020213D207463705F74C9
:1033B000775F7063627300007463705F736C6F7724
:1033C000746D723A20666972737420706362203D76
:1033D0003D207463705F74775F70636273000000F8
:1033E000696E76616C6964207374617465000000B5
:1033F000696E76616C696420736F636B65742073AA
:103400007461746520666F722072656376206361F3
:103410006C6C6261636B0000696E76616C6964203C
:10342000736F636B657420737461746520666F726B
:103430002073656E742063616C6C6261636B000065
:10344000696E76616C696420736F636B6574207359
:103450007461746520666F72206572722063616C9E
:103460006C6261636B000000696E76616C69642058
:10347000736F636B657420737461746520666F721B
:1034800020706F6C6C000000756E73656E74207335
:1034900065676D656E7473206C65616B696E67003E
:1034A000756E61636B6564207365676D656E7473BB
:1034B000206C65616B696E67000000006F6F73655B
:1034C00071207365676D656E7473206C65616B69DF
:1034D0006E670000010203040506070707070707D8
:1034E0000700000003060C18306078002DE9F04159
:1034F0000E4605461146891914319846002289B2B4
:103500000120FEF79FF904002DD0608906F1140117
:10351000884204DA00F029FE732201F087FB676815
:10352000E88AFEF7FFFE38803606288BFEF7FAFEA3
:103530007880C7F80480B60E686AFEF7F9FE761D3B
:10354000B860360346F01006B0B2FEF7EBFEB88165
:10355000688DFEF7E7FEF881002038827882698D59
:10356000686A4018E8622046BDE8F08138B5054633
:10357000AC6EC4B100E0044620680028FBD1E168CD
:103580008889FEF7CFFE10F0070F0CD10120FEF75F
:10359000C9FEE1688A8910438881A87E40F0200036
:1035A000A876002032BD2846BDE83440012172E3F0
:1035B0002DE9F047089D8146E8074CBF0426002608
:1035C0000F4692469846032001F0FFF8040003D10D
:1035D0003846FEF713FB1AE0A572002020606760F2
:1035E0003889B04208DA0FF690330FF274010FF603
:1035F000D430BA2201F01AFB3889801B20811421B3
:103600003846FEF7F7FA20B12046FFF7BFFB00204F
:1036100023E060684168E160B9F81600FEF782FEB9
:10362000E1680880B9F81800FEF77CFEE168488080
:103630004046FEF77DFEE1684860701006EB90762C
:10364000B610761D4AEA063188B2FEF76BFEE168D5
:1036500088810020E16848822046BDE8F0870000AC
:10366000702D3E746F745F6C656E203E3D206F70F0
:10367000746C656E00000000F8B50D4691421E4660
:103680002C461AD2079989070BD4069FB97E4B06A0
:1036900013D4089929B1BB6E002B04BFF96E002921
:1036A0000BD005F21B239B08B2EB830F31BF1446EE
:1036B00005F21B244FF6FC710C4000222146FEF758
:1036C000C1F8040001D10020F2BD206848B10FF616
:1036D000A8230FF21C010FF6EC204FF4887201F0C2
:1036E000A5FA6089401B3080258165812046F2BDA6
:1036F0006E65656420756E636861696E65642070CF
:10370000627566002DE9F04F8FB006461C4600201A
:10371000069007900C900B90ADF80C000A900E905C
:1037200006F15E03814609930025B6F85E00738EAC
:103730004008834234BFADF81230ADF81200BDF836
:10374000120008B9ADF8123008910FF6782B0FF679
:10375000282849B943464FF4C9720FF2FC4100F0E2
:1037600097FA6FF00F00D7E1307D042818BF0728C3
:1037700005D002281CBF03286FF00A00F3D106F120
:1037800068000D90ADF80E20BDF80E0000B306F1F4
:103790005E014888BDF80E1088422FD306F15E0105
:1037A000888808282ADC4FF6FD71884226D2002836
:1037B00006F16800416816D0002904BFB06E0028E9
:1037C00006D143464FF4AB720FF6244100F060FA85
:1037D00006F15E008DF81040B0F804A0B06E00282D
:1037E00000F0DE800FE0002904BFB06E0028EFD0AB
:1037F000434640F259120FF63441E7E7B07E40F0FD
:103800008000B07686E1054628680028FBD1A87ABA
:10381000C1072989BDF812004CBF04270027791879
:10382000884206DA434640F2C7120FF6344100F0F0
:103830002FFABDF812102889091A06F15E00CF1B75
:10384000C188ADF80C1000293BD0B8B2884206D22E
:10385000434640F2D9120FF6204100F019FABDF8A4
:103860000C00BDF80E100795884234BFBDF80C005F
:10387000BDF80E00BFB28742B8BF384606DBBDF8C0
:103880000C00BDF80E10884288BF08460A900AA8AE
:10389000B0F80090BDF80C200A990A98521AADF8B9
:1038A0000C203F1ABDF80C0000281CBFBDF80E10FC
:1038B000894506D0434640F2E1120FF6DC3100F0B4
:1038C000E7F9BDF80E00814566DAB8B200281CBFE2
:1038D0002889002860D0BDF80E10BFB2A1EB090105
:1038E0008F42B1BFADF81470BDF80E00A0EB090017
:1038F000ADF814000898079500EB09049DF8100036
:10390000C10716D59DF81000019001210291009683
:1039100003ABBDF814103A460420FFF7ADFE0028B3
:1039200006902BD0BDF814204068214601F0F0FE2F
:1039300027E0696800E0014608680028FBD1087BA1
:10394000012813D14A6848890899104488420DD14A
:10395000B9F1000F06D043464FF403720FF6583109
:1039600000F096F9BDF814000E9010E0BDF81410A8
:1039700001220420FDF766FF0028069000F0AF80CA
:1039800044600698FEF79FF950441FFA80FABDF88C
:10399000140048441FFA80F90B9CCDF8149041E0C4
:1039A00006F15E01C8880028F6D0434640F2252281
:1039B0000FF6303100F06CF9EEE70C9830B9434661
:1039C00040F285220FF69C3100F062F90C990798BD
:1039D000086021E04946FEF798F90198FEF773F96F
:1039E00050441FFA80FABAF10A0F80F231814FF683
:1039F000FD70824580F02C81002000900022B36D84
:103A000005980199C3183046FFF7D2FD00280790AA
:103A100053D0002CD1D1044607980C9005983F183C
:103A2000BFB205970598BDF80E10884280F2FD8060
:103A30000F1ABDF81210B8B2884234BFBFB20F4699
:103A400008980599014407919DF81000C10723D5F6
:103A5000002C0CBF01200020029003AB9DF8100049
:103A6000019000963946BDF812200020FFF704FEB1
:103A70000028019021D04189B94206DA434640F23C
:103A800041220FF6902100F003F901980799406850
:103A90003A4601F03DFEA0E7BDF80C0030B14346C8
:103AA00040F24B220FF6AC2100F0F2F80122394629
:103AB0000020FDF7C7FE5FEA000900F0C780079805
:103AC000C9F80400002200210020FDF7BBFE0028F9
:103AD00001907FF47FAF0B944846FEF78FF8B07EDD
:103AE00040F08000B076069808B1FEF787F80B9892
:103AF00008B1FFF742F90999888858B10D994868CB
:103B0000002804BF0868002804D1434640F202326E
:103B100000F0BCF84FF0FF300FB0BDE8F08F208907
:103B200050442081206848B96068638908995246EA
:103B3000184401F0EDFD6089504460812468002C38
:103B4000EDD12889504428810999BDF80C00C8801E
:103B5000069880B135B9434640F2BB220FF61821D2
:103B600000F096F806996868FEF7CFF8069A29895A
:103B70001089411820E00E9880B2F0B1002D1CBFD2
:103B80006868002806D1434640F2C1220FF6202182
:103B900000F07EF86A680E9903E01389CB18138150
:103BA000024610680028F8D1108908181081508941
:103BB00008185081288909182981002D06BF0D9801
:103BC00007602F600098816DBDF80E0008180099FD
:103BD000886509984188BDF80E00099A091A518034
:103BE000099901988880099A908858B10D99486878
:103BF000002804BF0868002804D1434640F2ED22A3
:103C000000F044F8B9F1000F1CBFD9F80C000028EF
:103C100009D0B10707D40820FEF784FBD9F80C10AF
:103C20008A8910438881002076E7009627460A9803
:103C300008999DF81060DDF81C90CDF804A00028CC
:103C400082D06C68DDF828A0089178E70B9446E7ED
:103C500001980B9441E700007463705F7772697498
:103C6000653A20617267203D3D204E554C4C20281E
:103C700070726F6772616D6D65722076696F6C61CD
:103C80007465732041504929000000000FF6581157
:103C9000584600F0CBBF2DE9F84F8946002719F0B0
:103CA000030F05460FF21C5A0FF2CC4806D14346CB
:103CB00040F21B320FF6501100F07AF805F162065F
:103CC0003088082803DC4FF6FD71884202D35FEA92
:103CD000C97020D55FEA897046BF01274FF0040BF9
:103CE000BB46002259460020FDF7ACFD040012D06F
:103CF0006089584506DA434640F241320FF66011BA
:103D000000F056F800974A46AB6D21462846FFF76B
:103D10004FFC040006D1A87E40F08000A8764FF04A
:103D2000FF3043E0207B10F0030F06D0434640F203
:103D300049320FF6681100F03BF8208930B1434654
:103D400040F24A320FF66C1100F032F805F16807C4
:103D5000396811B93C6004E0014608680028FBD1CD
:103D60000C60002019F0030F708002D0A86D401C79
:103D7000A8655FEAC97003D5A87E40F02000A87648
:103D80006068FDF7A0FF31884018308080B260B1D4
:103D90007868002804BF3968002906D1434640F2FC
:103DA0006D320FF63C1100F003F80020BDE8F28FF1
:103DB000504600F03BBFFEB50646F06CFEF7B8FA81
:103DC0000346002200213046FFF790FB040006D195
:103DD000B07E40F00300B0766FF00100FEBD301DF4
:103DE00001F0EEFC10B96FF003070BE00290321DFA
:103DF000062001903146707A00902046B37A01F097
:103E0000E3FD07463D462046FDF7F8FEB07E002D57
:103E100014BF40F0030000F0FC00B0763846FEBD51
:103E20002DE9F84F05460FF25038287D012808D1BA
:103E3000434640F2ED320FF6D0010FF2883000F029
:103E4000F5FEA04A1168A94200F0DD8005F14806A0
:103E5000B08A3188884234BF00900091A87E346ACD
:103E6000810709D524B100F031F900F0D5F803D26B
:103E70002846BDE8F24F9EE7776A27B100E0074683
:103E800038680028FBD1281D01F09AFC5FEA000980
:103E900007D0002D1CBF2868002807D119F10400A5
:103EA00002D16FF00300AFE000682860002C15D04D
:103EB00000F00CF900F0B0F811D210000FD0B08A69
:103EC000824204BF706A002809D105F19C0148783C
:103ED000002803D100220A7001224A708BE000F012
:103EE000F5F800F099F8F9D300F066FA400708D524
:103EF000434640F246420FF638010FF2C82000F068
:103F000095FE706A98B1AA7E12F0440F0FD1316A03
:103F100029B1086858B90989688E814207D2308B67
:103F200028B1718B082902DC12F0A00F63D0287D24
:103F3000022806D01020FEF7F5F9E1688A891043BF
:103F400088814A462946204600F06DF8010027D1B5
:103F500020683062287D022803D0A97E01F0FC0190
:103F6000A97600F0B3F8824600F026FA218910F015
:103F7000030018BF0120514440187168091A48BF56
:103F8000706000F019FA10F00300218918BF0120B9
:103F9000401829D000202060706A30B9746221E096
:103FA000A97E41F08001A9762EE000F08FF8F96833
:103FB000824600F08CF8BAEB000012D505F16C0ACD
:103FC000DAF8000010B3C16800F081F8E1688346B8
:103FD00000F07DF8BBEB000048BFDAF800A0EFD49A
:103FE00014E03C60274602E02046FEF7CFFE346A2C
:103FF000002C7FF474AF306A08B90021B183A87E29
:1040000000F07F00A8760020BDE8F28FDAF800000B
:104010002060CAF80040EAE7696C009A401A2189DA
:10402000401882427047FEB504460E466068C1895A
:104030000129154601D00020FEBD706AFEF778F90F
:10404000E1688860708DFEF76DF9E168C881706A7B
:10405000728D8018F06201F11407A07AC10709D5AA
:10406000311D4FF40670FFF73FF840F00170FEF786
:104070005FF93860B6F93000002844BF002131866E
:10408000706B28B910490A68726300F01FF8B063BA
:104090006068E1684268438941608A1A92B29B1A5B
:1040A000438103899A1A028100220A820621019122
:1040B0000295321D717A00913146B37A01F084FC89
:1040C000FEBD000004AF002074000020E1684868D5
:1040D000FEF72EB92DE9F04781468846154684B093
:1040E0009A46002214210120FDF7ACFB04003AD0CF
:1040F0006089142805D200F038F840F24D5200F0E3
:1041000095FD0D9E0C986768FEF70CF938803046D7
:10411000FEF708F978804846FEF70AF978604046CD
:10412000FEF706F9B86045F21400FEF7FBF8B88117
:1041300046F20800F881002038827882504601F06B
:104140003FFB50B1029000220620019000922946C8
:10415000FF235246204601F037FC204604B0BDE85C
:10416000F047FDF74BBDBDE8FF870FF20C030FF2E0
:1041700050210FF250007047443A5C50726F6A65EC
:1041800063745C544553545C4170706C6963617432
:10419000696F6E5C4D6964646C6577617265735CB0
:1041A00054686972645F50617274795C4C774950ED
:1041B0005C7372635C636F72655C7463705F6F7570
:1041C000742E6300417373657274696F6E202225CB
:1041D0007322206661696C6564206174206C696E6D
:1041E0006520256420696E2025730A0000F13403E0
:1041F0009A6B0AB970470A4611680029FBD1596BBE
:104200001160996B596300219963997BFF291CBF49
:10421000491C99730021196002E6F8B500F13406D3
:10422000B46BF4B12168B16300F16805286850B13E
:10423000C168FFF74CFFE1680746FFF748FF3F1AE8
:1042400048BF2D68F2D4286820602C60206808B927
:1042500000213186B07BFF281CBF401CB0730020BA
:104260003060F1BD38B5044604F14805686AF8B11C
:10427000A17E48071CD42046FFF7CFFFA88A2988D3
:10428000814238BF084600EBD070C003618E000C3D
:10429000B0EB410F38BF4800688001EB41016888EE
:1042A000081828800021A07E218640F00400A07616
:1042B00031BD3EB50546E86C401EFEF739F80346B1
:1042C000002200212846FFF711F9040002D14FF027
:1042D000FF303EBD281D01F073FA10B96FF00305E1
:1042E00008E000F063F82A1DAB7A2946204601F069
:1042F0006BFB05462046FDF781FC28463EBD2DE9B7
:10430000F041064684B0F46E04B9B46E0CB90020D6
:1043100049E000F051F8C00704D52089451EAD41A1
:10432000ED0F00E00025E068436885F00102002100
:104330003046FFF7DBF85FEA000808BF4FF0FF30B8
:1043400031D0D8F804704DB11120FDF7EBFFBA89D8
:104350004CF2FF010A401043B88109E060682189EE
:1043600003895B1A9BB2012207F11401FDF784FD5A
:10437000FFF7ACFEF16C401C091A48BFF064301D19
:1043800001F01EFA10B96FF0030408E000F00EF817
:10439000321DB37A3146404601F016FB04464046D2
:1043A000FDF72CFC204604B0BDE8F081029000210E
:1043B0000620019000917047E0688089FDF7B2BF48
:1043C000636865636B2074686174206669727374D6
:1043D00020706275662063616E20686F6C64207364
:1043E0007472756374207463705F68647200000097
:1043F0007463705F77726974653A20706275667372
:10440000206F6E207175657565203D3E20617420BA
:104410006C65617374206F6E6520717565756520BC
:104420006E6F6E2D656D7074790000007463705F3F
:1044300077726974653A206E6F20706275667320BA
:104440006F6E207175657565203D3E20626F7468E2
:104450002071756575657320656D70747900000055
:104460006D73735F6C6F63616C20697320746F6F21
:1044700020736D616C6C0000696E636F6E7369739D
:1044800074656E74206F76657273697A65207673D1
:104490002E20737061636500696E636F6E7369735C
:1044A00074656E74206F76657273697A65207673B1
:1044B0002E206C656E0000007463705F7772697403
:1044C000653A20524F4D2070627566732063616EAD
:1044D0006E6F74206265206F76657273697A6564A9
:1044E00000000000756E73656E745F6F76657273A1
:1044F000697A65206D69736D6174636820287063E3
:10450000622D3E756E73656E74206973204E554C36
:104510004C2900007463705F77726974653A206398
:104520006865636B207468617420666972737420B7
:10453000706275662063616E20686F6C64207468B9
:104540006520636F6D706C657465207365676C655D
:104550006E0000006F76657273697A65203D3D20BC
:1045600030000000707265765F73656720213D2022
:104570004E554C4C000000007463705F7772697494
:10458000653A2063616E6E6F7420636F6E63617451
:10459000656E617465207768656E207063622D3E7C
:1045A000756E73656E7420697320656D7074790023
:1045B0007463705F77726974653A20657874656EAC
:1045C00073696F6E206F66207265666572656E63D3
:1045D00065207265717569726573207265666572B2
:1045E000656E6365000000007463705F77726974C4
:1045F000653A2076616C6964207175657565206C1B
:10460000656E6774680000007463705F656E717535
:104610006575655F666C6167733A206E65656420D9
:10462000656974686572205443505F53594E206F1A
:1046300072205443505F46494E20696E20666C617B
:104640006773202870726F6772616D6D6572207676
:10465000696F6C6174657320415049290000000046
:104660007463705F656E71756575655F666C6167B3
:10467000733A20636865636B2074686174206669AF
:1046800072737420706275662063616E20686F6C4F
:1046900064206F70746C656E000000007365672D98
:1046A0003E746370686472206E6F7420616C696719
:1046B0006E6564007463705F656E71756575655FC6
:1046C000666C6167733A20696E76616C6964207309
:1046D00065676D656E74206C656E677468000000B8
:1046E0007463705F656E71756575655F666C616733
:1046F000733A20696E76616C6964207175657565C1
:10470000206C656E67746800646F6E277420636147
:104710006C6C207463705F6F757470757420666F55
:1047200072206C697374656E2D7063627300000093
:10473000525354206E6F742065787065637465649D
:10474000206865726521000010B5816800220A604A
:1047500000234268D21C9208920005E00C681460A5
:104760000A605B1C048822444488A342F6DB10BD27
:1047700038B500240FF2D01555F82400FFF7E4FFF8
:10478000641C0E2CF8D331BD38B5044600F03DFB57
:104790000546A06804689CB12168016014F003001C
:1047A00009D00FF2FC030FF2D4010FF2A80040F27F
:1047B000491200F03BFA284600F030FB204632BD9B
:1047C000284600F02BFB002032BD80B50E2808DB08
:1047D0000FF2CC030FF214110FF2780040F287129F
:1047E00004E00FF2641151F8200003E000F01EFA1B
:1047F000002002BDBDE80240C6E738B504460D46BC
:1048000015F0030009D00FF298030FF200110FF218
:10481000440040F29D1200F009FA00F0F6FAA16897
:104820000A682A600D60BDE8324000F0F7BA0E2831
:1048300009DB0FF26C030FF2F4010FF2180040F2E3
:10484000DB1200F0F3B921B10FF2FC0252F82000A4
:10485000D3E77047417373657274696F6E202225C8
:104860007322206661696C6564206174206C696ED6
:104870006520256420696E2025730A006D656D70C2
:104880005F6D616C6C6F633A206D656D7020707246
:104890006F7065726C7920616C69676E6564000089
:1048A000443A5C50726F6A6563745C544553545C5F
:1048B0004170706C69636174696F6E5C4D696464AA
:1048C0006C6577617265735C54686972645F50618E
:1048D0007274795C4C7749505C7372635C636F727D
:1048E000655C6D656D702E63000000006D656D7018
:1048F0005F6D616C6C6F633A2074797065203C2049
:104900004D454D505F4D4158000000006D656D7084
:104910005F667265653A206D656D2070726F7065B7
:10492000726C7920616C69676E6564006D656D708D
:104930005F667265653A2074797065203C204D454C
:104940004D505F4D41580000E4010108F00101089D
:10495000FC010108080201081402010820020108F4
:104960002C02010838020108440201085002010823
:104970005C02010868020108740201088002010853
:1049800080B5FDF7F2FC6C480168002902BF6B4A54
:104990001068002803D0BDE80840002217E06849ED
:1049A000086001BD664A1068002800D0704710B545
:1049B000614B1968002902BF604C2068002805D0AF
:1049C000012111600022BDE8104000E010BD5D49EA
:1049D000FA201DE010B504466068804720685A49F7
:1049E0002246BDE8104013E070B50124564D0FF289
:1049F0001C2656F8340006EBC402294600F008F8DD
:104A0000641C042CF5D301F0C5FA5049486070BD10
:104A1000F8B505460E4617460B20FFF7D6FE0400F4
:104A20000BD101B0BDE8F0400FF290130FF24C1122
:104A30000FF22010D42200F0F9B801F0ABFA434B8A
:104A40000146186810B92A46596002E05A684919A7
:104A50008A1A00212160A660E760626028B141687F
:104A60008D4204D24D1B456020601C60F1BD0246A2
:104A700061685368CB1A6360116869B14E68B342CC
:104A800028BF0A46F4D207E09D4202D24068451989
:104A9000656021601460F1BD0029F5D04E68F31AFD
:104AA0004B60F6E72DE9F04781468A46DFF8A080A3
:104AB000264E306830B951464846BDE8F0470022DE
:104AC00000F0F9B801F066FA02467068121A306810
:104AD0004068904208D3821A06D05146484600F0FA
:104AE000EAF810F1010F23D130680028E3D001F07B
:104AF00051FA074670683F1A31680029D9D04868D2
:104B00008742DFD37268821872603F1A086830608B
:104B10008D68CC680B20FFF78AFE2800ECD0404659
:104B200000F055F92046A847404600F055F9E3E764
:104B3000BDE8F08700000000800000208400002015
:104B4000DCAF002081490008D549000888AF00206B
:104B500068AF0020417373657274696F6E202225FF
:104B60007322206661696C6564206174206C696ED3
:104B70006520256420696E2025730A007379735FB0
:104B800074696D656F75743A2074696D656F7574BD
:104B900020213D204E554C4C2C20706F6F6C204DC9
:104BA000454D505F5359535F54494D454F5554201F
:104BB000697320656D70747900000000443A5C50A0
:104BC000726F6A6563745C544553545C4170706CD9
:104BD00069636174696F6E5C4D6964646C6577616B
:104BE0007265735C54686972645F50617274795C59
:104BF0004C7749505C7372635C636F72655C746977
:104C00006D656F7574732E6300000000FA0000007C
:104C10006B230008E8030000F9760008E8030000B1
:104C200035B8000864000000817400080EB4C0B5F7
:104C3000024603A800210190009101AB0121044824
:104C400078440C3001F0E8F906BC5DF810FB00BFB9
:104C500023BA00001CB504460FF2D810D0E9002397
:104C6000CDE9002300916846002102F089FA206016
:104C700000B9A9E0002016BD10B50446206802F076
:104C8000F5FA2068BDE8104002F0FEBA38B50446D7
:104C90000D4620684FF0FF32294602F076FA0028D0
:104CA000F7D131BD80B50068002202F06EFA08B17C
:104CB0004FF0FF3002BDFEB505460E46144602F029
:104CC00076F9074654B129682246684602F07EFA12
:104CD0000098102808D04FF0FF30FEBD29684FF033
:104CE000FF32684602F072FA0198306002F05FF914
:104CF000C01BFEBD10B584B00C460168002268469A
:104D000002F064FA0099102903BF01982060002086
:104D10004FF0FF3004B010BD37E03BE038B504463B
:104D20000FF20810026800920D460121684602F059
:104D3000A1F9206010B94FF0FF3032BD15B9002144
:104D400002F0ABF9002032BD70B505460C4602F00A
:104D50002EF906463CB12868214602F09EF948B17A
:104D60004FF0FF3070BD28684FF0FF3102F095F929
:104D70000028F8D102F01BF9801B70BD006802F01A
:104D8000C5B9006802F0EFB900BF006800B10120AA
:104D9000704700BF00210160704780B50FF29C0092
:104DA00002F02FF92049086001BD10B50FF2800113
:104DB0000A6882B004460092684602F022F9206038
:104DC00000B901E0002016BD4FF0FF3016BD0068AD
:104DD0004FF0FF3102F018B921E02DE9F04186B023
:104DE00007460E460C9C90461D466846142100F06E
:104DF000E3FC00970196ADF80840049541466846EB
:104E000002F0E1F806B0BDE8F08180B50648006820
:104E10004FF0FF3102F0F8F8012002BD02480068AF
:104E200002F010B900000000D8AF00200000000020
:104E3000000000000000000004000000000000006E
:104E4000F8B5774C216809B16068884704F10C0017
:104E5000FFF7BDFF0FF2D8150FF2FC160FF218275F
:104E600005E03B46692231462846FFF7DFFE04F1A4
:104E70000C00FFF7B1FF694604F10800FFF712FECE
:104E800004F10C00FFF7A3FF00980028E9D00146C9
:104E90000878022804D018D3042812D00BD314E0C9
:104EA0000846009A81684068D368984700990920AD
:104EB000FFF7BDFCDBE788684A6890470099082047
:104EC000F6E788684A689047D1E73B469B22CAE7E5
:104ED0002DE9F04100F04FF820B900F055F8B52267
:104EE000FFF7A4FE0920FFF770FC04000ED002209B
:104EF00020706560A660E760214608F10800FFF7B2
:104F0000D1FE28B121460920FFF791FC4FF0FF3078
:104F1000BDE8F08191F8332012F0180F14BF414A18
:104F2000414AD5E72DE9F04100F025F820B900F01D
:104F30002BF8EE22FFF77AFE0820FFF746FC04006C
:104F400002D14FF0FF300BE003202070002F65608E
:104F5000A660214608F1080004D0FFF797FE002064
:104F6000BDE8F081FFF79EFE0028F8D0214608201A
:104F7000FFF75DFCE5E70546DFF8A4800E4617461F
:104F800008F10800FFF7C8BE0FF2EC030FF234116E
:104F90000FF29C00704770B500F008F82846A04753
:104FA00006F10C00FFF718FF002070BD04461C4EF0
:104FB0000D4606F10C00FFF70ABF70B582B004463B
:104FC0000D4602F068F9164E06213460756006F150
:104FD0000800FFF73FFE0FF258040FF29C0538B1AE
:104FE0002B4640F2D5120FF2EC012046FFF71EFED1
:104FF00006F10C00FFF7D9FE38B12B4640F2D9126A
:105000000FF2F4012046FFF711FE032000904FF449
:105010008063002205490FF20410FFF7DEFE73BD26
:105020005CAF002021C2000825580008414E00084E
:10503000417373657274696F6E2022257322206636
:1050400061696C6564206174206C696E65202564FB
:1050500020696E2025730A0074637069705F74683C
:10506000726561643A20696E76616C6964206D6571
:105070007373616765000000443A5C50726F6A6543
:1050800063745C544553545C4170706C6963617423
:10509000696F6E5C4D6964646C6577617265735CA1
:1050A00054686972645F50617274795C4C774950DE
:1050B0005C7372635C6170695C74637069702E63A9
:1050C00000000000496E76616C6964206D626F7843
:1050D000000000006661696C656420746F20637273
:1050E000656174652074637069705F74687265616E
:1050F00064206D626F7800006661696C656420747D
:105100006F20637265617465206C6F636B5F74639D
:105110007069705F636F726500000000746370698E
:10512000705F74687265616400000000F8B5DFF8B4
:105130009C530FF2AC360FF2E837044628688442DD
:1051400006D23B4640F25D120FF2BC3100F0C5F9C9
:105150006868844206D33B464FF4AF720FF20841B1
:1051600000F0BBF9207930B13B4640F25F120FF2FC
:10517000144100F0B2F9208840F24161884206D320
:105180003B464FF4B1720FF2184100F0A6F92968BE
:1051900020880B189C420ED0187960B96E68B34213
:1051A00009D0A868984208BFAC60188820808E1C7F
:1051B0001B88601AF05260880B18A3420BD0187934
:1051C00048B9AE68A64208BFAB60208818805A1A5A
:1051D000881C21884252F1BDBC4810B500F10F0176
:1051E00089080023890001604B800B714FF4C8626D
:1051F0000A8001F5C863436001241C711A805A803B
:10520000816000F5CC60FFF7D0FD58B1BDE81040DB
:105210000FF20C330FF2B4310FF2C4204FF4CC7202
:10522000FFF704BD10BD2DE9F041040082B046D067
:1052300014F003000FF2A8250FF2E42607D033463E
:105240004FF4D6720FF2A0312846FFF7EFFC9F4FC4
:105250003868844202D37868844207D3334640F2E8
:10526000AF120FF2A8312846FFF7E0FC38688442FD
:1052700002D37868844205D3FFF7C7FDBDE8F64145
:10528000FFF7CCBD00F024F914F8040C38B933460C
:105290004FF4E0720FF28C312846FFF7C7FC002074
:1052A00004F8040CA4F10800B968884238BFB8605B
:1052B000FFF73CFF4046BDE8F641FFF78DBDBDE876
:1052C000F3812DE9F047C91C4FF6FC7211400D46E1
:1052D0000C2982B038BF0C2502D3B1F5C86F33D882
:1052E0007A4F0FF2FC190FF2382A80463868804551
:1052F00002D37868804507D353464FF4FA720FF211
:1053000038314846FFF792FC3E68B04502D37868D2
:10531000804504D3FFF779FDFFF780FD4AE0A8F14F
:105320000800861B38F8080C801BA0F10804A4B202
:10533000AC4207DA534640F206220FF214314846D7
:10534000FFF774FCAC4201DA002034E0A54231D012
:1053500007F5CC694846FFF73AFD396838F8080C7C
:1053600001EB000CAA19083292B2D7F808E09CF8B9
:1053700004008B1838B9BCF80000E64508BFBB60D4
:1053800000251D7109E01435AC4210D3734538BFB8
:10539000BB600020187138F8080C18805E8028F86F
:1053A000082C1888B0F5C86F1CBF891C0A524846E3
:1053B000FFF712FD4046BDE8F6872DE9F84390B1AE
:1053C000C61C4FF6FC7006400C2E09D20C263F4F2F
:1053D00000F07EF8BA683B68D11A89B2354607E01A
:1053E000B6F5C86FF3D90020BDE8F283BCF8001011
:1053F000C5F5C860814236D203EB010C64462079C2
:105400000028F3D12088401A0838A842EED305F1CD
:10541000140C604516D376180836B6B298194FF0BA
:10542000000C80F804C0B4F800C0A0F800C04180AF
:105430002680012121710088B0F5C86F04D018447E
:10544000468001E00120207194420FF294060FF291
:10545000D00918D17968107948B18A421CBF1088E8
:105460001A18F8D103E04046FFF7B6FCBBE78A42C2
:1054700018BF0028BA6006D04B4640F2CF220FF288
:10548000F01100F02AF84046FFF7A6FC78682D19C5
:105490000835A84206D24B464FF435720FF2EC1194
:1054A00000F01BF814F003000DD04B4640F2D6225A
:1054B0000FF2082100F011F84B464FF436720FF24C
:1054C0002C2100F00AF804F108008DE7289500204F
:1054D00007F5CC684046FFF77ABC3046FFF7A6BB1D
:1054E000417373657274696F6E2022257322206682
:1054F00061696C6564206174206C696E6520256447
:1055000020696E2025730A00706C75675F686F6C88
:1055100065733A206D656D203E3D2072616D00001F
:10552000443A5C50726F6A6563745C544553545CD2
:105530004170706C69636174696F6E5C4D6964641D
:105540006C6577617265735C54686972645F506101
:105550007274795C4C7749505C7372635C636F72F0
:10556000655C6D656D2E6300706C75675F686F6C50
:1055700065733A206D656D203C2072616D5F656ECC
:1055800064000000706C75675F686F6C65733A202B
:105590006D656D2D3E75736564203D3D20300000C6
:1055A000706C75675F686F6C65733A206D656D2D03
:1055B0003E6E657874203C3D204D454D5F53495A01
:1055C000455F414C49474E45440000006661696CA7
:1055D000656420746F20637265617465206D656D0C
:1055E0005F6D7574657800006D656D5F66726565E9
:1055F0003A2073616E69747920636865636B20611A
:105600006C69676E6D656E74000000006D656D5F9E
:10561000667265653A206C6567616C206D656D6FBB
:10562000727900006D656D5F667265653A206D6523
:105630006D2D3E75736564006D656D5F7472696D87
:105640003A206C6567616C206D656D6F7279000042
:105650006D656D5F7472696D2063616E206F6E6C35
:105660007920736872696E6B206D656D6F72790059
:105670006D656D5F6D616C6C6F633A20216C667255
:1056800065652D3E75736564000000006D656D5F96
:105690006D616C6C6F633A20616C6C6F63617465F3
:1056A00064206D656D6F7279206E6F742061626F1A
:1056B00076652072616D5F656E642E006D656D5F4D
:1056C0006D616C6C6F633A20616C6C6F63617465C3
:1056D00064206D656D6F72792070726F7065726C89
:1056E0007920616C69676E65642E00006D656D5F81
:1056F0006D616C6C6F633A2073616E6974792063BD
:105700006865636B20616C69676E6D656E7400001F
:1057100062B38B0708D0521E11F8013B00F8013B21
:1057200000F024808B07F6D1830740F0208000BF73
:10573000103A07D330B4B1E83810103AA0E8381066
:10574000F9D230BC530724BFB1E80810A0E8081014
:1057500044BF51F8043B40F8043BD20724BF31F862
:10576000022B20F8022B44BF0B7803707047121FE6
:1057700017D35B0009D151F8043B20F8023B1B0C06
:10578000121F20F8023BF6D20BE051F8043B00F860
:10579000013B1B0A20F8023B1B0C121F00F8013BC7
:1057A000F3D238BF121D521E24BF11F8013B00F87E
:1057B000013BF8D870470000002201F081BD0000D5
:1057C00038B5026802F0F000E02803D1DFF85C137E
:1057D0000868B8B9DFF858030068A0B190F8333012
:1057E00003F005010529F7D141680029F4D0846848
:1057F00004EA020521408D4204D09907ECD4C16827
:105800008A42E9D132BDDFF82C03006840B190F83C
:10581000331001F00501052902D141680029F1D1B9
:10582000002032BD2DE9F84F06468B46776839785F
:105830000809042831D1880000F03C087888FCF77A
:1058400071FD31898842044603D221463046FCF777
:1058500019F97089404520DB3089A0421DD3B8F189
:10586000140F1ADB3869B44D6861F8682861287D27
:1058700000F0F000E02826D19BF83300810610D418
:10588000002428695946FBF753FF30B9287C00F003
:10589000F000E02801D0002C3CD13046FCF7AEF9F6
:1058A00042E005F11401584601F054FD0028E7D00C
:1058B0006969A248814201D05C46E2E72869002874
:1058C000FAD15C46E7E74FF001095C46DFF860A2D9
:1058D00094F83300C1070AD5606840B16A69824212
:1058E000CFD021461046FBF723FF0028C9D1B9F1DC
:1058F000000F08D0287D7F281CBF4FF00009DAF880
:10590000004001D1BCE724685C4508BF2468002C36
:10591000DED1B6E7F8884FF63F71084207D030462F
:1059200002F099F8060001D100204BE077682C6066
:10593000C5F804B0AF60C8F100013878800000F00D
:105940003C00A88109B23046FCF754F9787A012866
:105950000FD0022812D0062806D0112815D159469A
:10596000304602F038FB26E059463046FAF70CFC88
:1059700021E05946304602F095FC1CE005F1140286
:105980005946304601F028FD15E068692146FBF7CD
:10599000CFFE68B9287D00F0F000E02808D041462D
:1059A0003046FCF729F977600221304602F00AFD03
:1059B0003046FCF723F9002028606860A860A881C1
:1059C00028616861BDE8F28FF0B585B000F01FF87E
:1059D00000F002F805B0F0BDF0B585B00C460C9FA4
:1059E00022B100291ABF096800293C1D0E99DDF873
:1059F00034C00B9D0A9E0491CDF80CC0029701950E
:105A000000962146FFE700F00CF805B0F0BD002736
:105A10000A9D0B9C0C9E0497039702960194009597
:105A200070472DE9F84F07468B46F8890FF24C1A5C
:105A300001289046994608D0534640F233320FF27F
:105A400030110FF20410FFF7F1F8B8F1000F56D043
:105A50000E9E1424300017D0F51C4FF6FC70054044
:105A600029B2384605F11404FCF7C4F8A4B280B991
:105A70000D9978683246FFF74BFEAE4204DA7A6839
:105A8000A91B901902F06CFD14213846FCF7B2F8FE
:105A900010B16FF0010047E078897E68142808D2C1
:105AA000534640F261320FF224110FF29C00FFF7CF
:105AB000BDF80B980A99707286F80890A408D8F877
:105AC0000000306144F040043470717038891C4C1F
:105AD000FCF728FC70800020F0802088FCF722FC76
